{
  "address": "0x9fE46736679d2D9a65F0992F2272dE9f3c7fa6e0",
  "abi": [
    {
      "inputs": [
        {
          "internalType": "contract IERC20",
          "name": "_trustyCoin",
          "type": "address"
        },
        {
          "internalType": "uint256",
          "name": "_rate",
          "type": "uint256"
        }
      ],
      "stateMutability": "nonpayable",
      "type": "constructor"
    },
    {
      "inputs": [],
      "name": "TrustyCoinSale__NoFunds",
      "type": "error"
    },
    {
      "anonymous": false,
      "inputs": [
        {
          "indexed": true,
          "internalType": "address",
          "name": "previousOwner",
          "type": "address"
        },
        {
          "indexed": true,
          "internalType": "address",
          "name": "newOwner",
          "type": "address"
        }
      ],
      "name": "OwnershipTransferred",
      "type": "event"
    },
    {
      "anonymous": false,
      "inputs": [
        {
          "indexed": true,
          "internalType": "address",
          "name": "purchaser",
          "type": "address"
        },
        {
          "indexed": false,
          "internalType": "uint256",
          "name": "amount",
          "type": "uint256"
        }
      ],
      "name": "TokensPurchased",
      "type": "event"
    },
    {
      "inputs": [],
      "name": "buyTokens",
      "outputs": [],
      "stateMutability": "payable",
      "type": "function"
    },
    {
      "inputs": [],
      "name": "getRate",
      "outputs": [
        {
          "internalType": "uint256",
          "name": "",
          "type": "uint256"
        }
      ],
      "stateMutability": "view",
      "type": "function"
    },
    {
      "inputs": [],
      "name": "owner",
      "outputs": [
        {
          "internalType": "address",
          "name": "",
          "type": "address"
        }
      ],
      "stateMutability": "view",
      "type": "function"
    },
    {
      "inputs": [],
      "name": "renounceOwnership",
      "outputs": [],
      "stateMutability": "nonpayable",
      "type": "function"
    },
    {
      "inputs": [
        {
          "internalType": "address",
          "name": "newOwner",
          "type": "address"
        }
      ],
      "name": "transferOwnership",
      "outputs": [],
      "stateMutability": "nonpayable",
      "type": "function"
    },
    {
      "inputs": [],
      "name": "withdraw",
      "outputs": [],
      "stateMutability": "nonpayable",
      "type": "function"
    },
    {
      "inputs": [],
      "name": "withdrawTokens",
      "outputs": [],
      "stateMutability": "nonpayable",
      "type": "function"
    }
  ],
  "transactionHash": "0xfd4bf088d98497022f4a171608d53ec803a80633ca7c47ed6ba16c2fdbab8fcc",
  "args": [
    "0x5FbDB2315678afecb367f032d93F642f64180aa3",
    "5"
  ],
  "numDeployments": 1,
  "solcInputHash": "27bddca20eeddb89d9ff11e1cc2473ac",
  "bytecode": "0x60c060405234801561001057600080fd5b50604051610a4d380380610a4d83398101604081905261002f9161009e565b6100383361004e565b6001600160a01b0390911660805260a0526100d8565b600080546001600160a01b038381166001600160a01b0319831681178455604051919092169283917f8be0079c531659141344cd1fd0a4f28419497f9722a3daafe3b4186f6b6457e09190a35050565b600080604083850312156100b157600080fd5b82516001600160a01b03811681146100c857600080fd5b6020939093015192949293505050565b60805160a05161092e61011f60003960008181609e0152610486015260008181610229015281816102e40152818161036b015281816104f30152610600015261092e6000f3fe6080604052600436106100705760003560e01c80638d8f2adb1161004e5780638d8f2adb146100e15780638da5cb5b146100f6578063d0febe4c1461012b578063f2fde38b1461013357600080fd5b80633ccfd60b14610075578063679aefce1461008c578063715018a6146100cc575b600080fd5b34801561008157600080fd5b5061008a610153565b005b34801561009857600080fd5b506040517f000000000000000000000000000000000000000000000000000000000000000081526020015b60405180910390f35b3480156100d857600080fd5b5061008a6101df565b3480156100ed57600080fd5b5061008a6101f3565b34801561010257600080fd5b5060005460405173ffffffffffffffffffffffffffffffffffffffff90911681526020016100c3565b61008a61047f565b34801561013f57600080fd5b5061008a61014e366004610865565b6106bb565b61015b61076f565b47600003610195576040517fc2c6697300000000000000000000000000000000000000000000000000000000815260040160405180910390fd5b6000805460405173ffffffffffffffffffffffffffffffffffffffff909116914780156108fc02929091818181858888f193505050501580156101dc573d6000803e3d6000fd5b50565b6101e761076f565b6101f160006107f0565b565b6101fb61076f565b6040517f70a082310000000000000000000000000000000000000000000000000000000081523060048201527f000000000000000000000000000000000000000000000000000000000000000073ffffffffffffffffffffffffffffffffffffffff16906370a0823190602401602060405180830381865afa158015610285573d6000803e3d6000fd5b505050506040513d601f19601f820116820180604052508101906102a991906108a2565b6000036102e2576040517fc2c6697300000000000000000000000000000000000000000000000000000000815260040160405180910390fd5b7f000000000000000000000000000000000000000000000000000000000000000073ffffffffffffffffffffffffffffffffffffffff1663a9059cbb61033d60005473ffffffffffffffffffffffffffffffffffffffff1690565b6040517f70a082310000000000000000000000000000000000000000000000000000000081523060048201527f000000000000000000000000000000000000000000000000000000000000000073ffffffffffffffffffffffffffffffffffffffff16906370a0823190602401602060405180830381865afa1580156103c7573d6000803e3d6000fd5b505050506040513d601f19601f820116820180604052508101906103eb91906108a2565b6040517fffffffff0000000000000000000000000000000000000000000000000000000060e085901b16815273ffffffffffffffffffffffffffffffffffffffff909216600483015260248201526044016020604051808303816000875af115801561045b573d6000803e3d6000fd5b505050506040513d601f19601f820116820180604052508101906101dc91906108bb565b60006104ab7f0000000000000000000000000000000000000000000000000000000000000000346108dd565b6040517f70a08231000000000000000000000000000000000000000000000000000000008152306004820152909150819073ffffffffffffffffffffffffffffffffffffffff7f000000000000000000000000000000000000000000000000000000000000000016906370a0823190602401602060405180830381865afa15801561053a573d6000803e3d6000fd5b505050506040513d601f19601f8201168201806040525081019061055e91906108a2565b10156105cb576040517f08c379a000000000000000000000000000000000000000000000000000000000815260206004820152601b60248201527f4e6f7420656e6f75676820746f6b656e7320617661696c61626c65000000000060448201526064015b60405180910390fd5b6040517fa9059cbb000000000000000000000000000000000000000000000000000000008152336004820152602481018290527f000000000000000000000000000000000000000000000000000000000000000073ffffffffffffffffffffffffffffffffffffffff169063a9059cbb906044016020604051808303816000875af115801561065e573d6000803e3d6000fd5b505050506040513d601f19601f8201168201806040525081019061068291906108bb565b5060405181815233907f8f28852646c20cc973d3a8218f7eefed58c25c909f78f0265af4818c3d4dc2719060200160405180910390a250565b6106c361076f565b73ffffffffffffffffffffffffffffffffffffffff8116610766576040517f08c379a000000000000000000000000000000000000000000000000000000000815260206004820152602660248201527f4f776e61626c653a206e6577206f776e657220697320746865207a65726f206160448201527f646472657373000000000000000000000000000000000000000000000000000060648201526084016105c2565b6101dc816107f0565b60005473ffffffffffffffffffffffffffffffffffffffff1633146101f1576040517f08c379a000000000000000000000000000000000000000000000000000000000815260206004820181905260248201527f4f776e61626c653a2063616c6c6572206973206e6f7420746865206f776e657260448201526064016105c2565b6000805473ffffffffffffffffffffffffffffffffffffffff8381167fffffffffffffffffffffffff0000000000000000000000000000000000000000831681178455604051919092169283917f8be0079c531659141344cd1fd0a4f28419497f9722a3daafe3b4186f6b6457e09190a35050565b60006020828403121561087757600080fd5b813573ffffffffffffffffffffffffffffffffffffffff8116811461089b57600080fd5b9392505050565b6000602082840312156108b457600080fd5b5051919050565b6000602082840312156108cd57600080fd5b8151801515811461089b57600080fd5b808202811582820484141761091b577f4e487b7100000000000000000000000000000000000000000000000000000000600052601160045260246000fd5b9291505056fea164736f6c6343000813000a",
  "devdoc": {
    "kind": "dev",
    "methods": {
      "owner()": {
        "details": "Returns the address of the current owner."
      },
      "renounceOwnership()": {
        "details": "Leaves the contract without owner. It will not be possible to call `onlyOwner` functions. Can only be called by the current owner. NOTE: Renouncing ownership will leave the contract without an owner, thereby disabling any functionality that is only available to the owner."
      },
      "transferOwnership(address)": {
        "details": "Transfers ownership of the contract to a new account (`newOwner`). Can only be called by the current owner."
      }
    },
    "version": 1
  },
  "userdoc": {
    "kind": "user",
    "methods": {},
    "version": 1
  },
  "storageLayout": {
    "storage": [
      {
        "astId": 75,
        "contract": "contracts/TrustyCoinSale.sol:TrustyCoinSale",
        "label": "_owner",
        "offset": 0,
        "slot": "0",
        "type": "t_address"
      }
    ],
    "types": {
      "t_address": {
        "encoding": "inplace",
        "label": "address",
        "numberOfBytes": "20"
      }
    }
  }
}