{
  "address": "0xe7f1725E7734CE288F8367e1Bb143E90bb3F0512",
  "abi": [
    {
      "inputs": [
        {
          "internalType": "address",
          "name": "trustyCoinAddress",
          "type": "address"
        },
        {
          "internalType": "uint256",
          "name": "_verificationFee",
          "type": "uint256"
        }
      ],
      "stateMutability": "nonpayable",
      "type": "constructor"
    },
    {
      "inputs": [],
      "name": "OnlySimulatedBackend",
      "type": "error"
    },
    {
      "inputs": [],
      "name": "VerifierNFT__AlreadyAuthorizedPartner",
      "type": "error"
    },
    {
      "inputs": [],
      "name": "VerifierNFT__AlreadyUnauthorizedPartner",
      "type": "error"
    },
    {
      "inputs": [],
      "name": "VerifierNFT__OnlyAuthorizedPartner",
      "type": "error"
    },
    {
      "inputs": [],
      "name": "VerifierNFT__TheCallerIsNotAuthorizedToReject",
      "type": "error"
    },
    {
      "inputs": [],
      "name": "VerifierNFT__TheRequestIsCompleted",
      "type": "error"
    },
    {
      "inputs": [],
      "name": "VerifierNFT__TheRequestIsRejected",
      "type": "error"
    },
    {
      "anonymous": false,
      "inputs": [
        {
          "indexed": true,
          "internalType": "address",
          "name": "owner",
          "type": "address"
        },
        {
          "indexed": true,
          "internalType": "address",
          "name": "approved",
          "type": "address"
        },
        {
          "indexed": true,
          "internalType": "uint256",
          "name": "tokenId",
          "type": "uint256"
        }
      ],
      "name": "Approval",
      "type": "event"
    },
    {
      "anonymous": false,
      "inputs": [
        {
          "indexed": true,
          "internalType": "address",
          "name": "owner",
          "type": "address"
        },
        {
          "indexed": true,
          "internalType": "address",
          "name": "operator",
          "type": "address"
        },
        {
          "indexed": false,
          "internalType": "bool",
          "name": "approved",
          "type": "bool"
        }
      ],
      "name": "ApprovalForAll",
      "type": "event"
    },
    {
      "anonymous": false,
      "inputs": [
        {
          "indexed": false,
          "internalType": "uint256",
          "name": "_fromTokenId",
          "type": "uint256"
        },
        {
          "indexed": false,
          "internalType": "uint256",
          "name": "_toTokenId",
          "type": "uint256"
        }
      ],
      "name": "BatchMetadataUpdate",
      "type": "event"
    },
    {
      "anonymous": false,
      "inputs": [
        {
          "indexed": false,
          "internalType": "uint256",
          "name": "_tokenId",
          "type": "uint256"
        }
      ],
      "name": "MetadataUpdate",
      "type": "event"
    },
    {
      "anonymous": false,
      "inputs": [
        {
          "indexed": true,
          "internalType": "address",
          "name": "previousOwner",
          "type": "address"
        },
        {
          "indexed": true,
          "internalType": "address",
          "name": "newOwner",
          "type": "address"
        }
      ],
      "name": "OwnershipTransferred",
      "type": "event"
    },
    {
      "anonymous": false,
      "inputs": [
        {
          "indexed": true,
          "internalType": "address",
          "name": "from",
          "type": "address"
        },
        {
          "indexed": true,
          "internalType": "address",
          "name": "to",
          "type": "address"
        },
        {
          "indexed": true,
          "internalType": "uint256",
          "name": "tokenId",
          "type": "uint256"
        }
      ],
      "name": "Transfer",
      "type": "event"
    },
    {
      "anonymous": false,
      "inputs": [
        {
          "indexed": false,
          "internalType": "uint256",
          "name": "requestId",
          "type": "uint256"
        },
        {
          "indexed": true,
          "internalType": "address",
          "name": "user",
          "type": "address"
        },
        {
          "indexed": false,
          "internalType": "uint256",
          "name": "tokenId",
          "type": "uint256"
        }
      ],
      "name": "VerificationCompleted",
      "type": "event"
    },
    {
      "anonymous": false,
      "inputs": [
        {
          "indexed": false,
          "internalType": "uint256",
          "name": "requestId",
          "type": "uint256"
        },
        {
          "indexed": true,
          "internalType": "address",
          "name": "user",
          "type": "address"
        },
        {
          "indexed": true,
          "internalType": "address",
          "name": "partner",
          "type": "address"
        }
      ],
      "name": "VerificationRejected",
      "type": "event"
    },
    {
      "anonymous": false,
      "inputs": [
        {
          "indexed": false,
          "internalType": "uint256",
          "name": "requestId",
          "type": "uint256"
        },
        {
          "indexed": true,
          "internalType": "address",
          "name": "user",
          "type": "address"
        }
      ],
      "name": "VerificationRequested",
      "type": "event"
    },
    {
      "anonymous": false,
      "inputs": [
        {
          "indexed": false,
          "internalType": "uint256",
          "name": "requestId",
          "type": "uint256"
        },
        {
          "indexed": true,
          "internalType": "address",
          "name": "partner",
          "type": "address"
        }
      ],
      "name": "VerificationValidatedByPartner",
      "type": "event"
    },
    {
      "inputs": [
        {
          "internalType": "address",
          "name": "partner",
          "type": "address"
        }
      ],
      "name": "addAuthorizedPartner",
      "outputs": [],
      "stateMutability": "nonpayable",
      "type": "function"
    },
    {
      "inputs": [
        {
          "internalType": "address",
          "name": "to",
          "type": "address"
        },
        {
          "internalType": "uint256",
          "name": "tokenId",
          "type": "uint256"
        }
      ],
      "name": "approve",
      "outputs": [],
      "stateMutability": "nonpayable",
      "type": "function"
    },
    {
      "inputs": [
        {
          "internalType": "address",
          "name": "owner",
          "type": "address"
        }
      ],
      "name": "balanceOf",
      "outputs": [
        {
          "internalType": "uint256",
          "name": "",
          "type": "uint256"
        }
      ],
      "stateMutability": "view",
      "type": "function"
    },
    {
      "inputs": [
        {
          "internalType": "bytes",
          "name": "",
          "type": "bytes"
        }
      ],
      "name": "checkUpkeep",
      "outputs": [
        {
          "internalType": "bool",
          "name": "upkeepNeeded",
          "type": "bool"
        },
        {
          "internalType": "bytes",
          "name": "performData",
          "type": "bytes"
        }
      ],
      "stateMutability": "view",
      "type": "function"
    },
    {
      "inputs": [
        {
          "internalType": "uint256",
          "name": "tokenId",
          "type": "uint256"
        }
      ],
      "name": "getApproved",
      "outputs": [
        {
          "internalType": "address",
          "name": "",
          "type": "address"
        }
      ],
      "stateMutability": "view",
      "type": "function"
    },
    {
      "inputs": [
        {
          "internalType": "address",
          "name": "partner",
          "type": "address"
        }
      ],
      "name": "getAuthorizedPartner",
      "outputs": [
        {
          "internalType": "bool",
          "name": "",
          "type": "bool"
        }
      ],
      "stateMutability": "view",
      "type": "function"
    },
    {
      "inputs": [],
      "name": "getRequestCounter",
      "outputs": [
        {
          "internalType": "uint256",
          "name": "",
          "type": "uint256"
        }
      ],
      "stateMutability": "view",
      "type": "function"
    },
    {
      "inputs": [],
      "name": "getTimeLimit",
      "outputs": [
        {
          "internalType": "uint256",
          "name": "",
          "type": "uint256"
        }
      ],
      "stateMutability": "pure",
      "type": "function"
    },
    {
      "inputs": [],
      "name": "getTrustyCoin",
      "outputs": [
        {
          "internalType": "contract IERC20",
          "name": "",
          "type": "address"
        }
      ],
      "stateMutability": "view",
      "type": "function"
    },
    {
      "inputs": [],
      "name": "getVerificationFee",
      "outputs": [
        {
          "internalType": "uint256",
          "name": "",
          "type": "uint256"
        }
      ],
      "stateMutability": "view",
      "type": "function"
    },
    {
      "inputs": [
        {
          "internalType": "uint256",
          "name": "requestId",
          "type": "uint256"
        }
      ],
      "name": "getVerificationRequest",
      "outputs": [
        {
          "components": [
            {
              "internalType": "address",
              "name": "user",
              "type": "address"
            },
            {
              "internalType": "string",
              "name": "tokenURI",
              "type": "string"
            },
            {
              "internalType": "uint256",
              "name": "requestTime",
              "type": "uint256"
            },
            {
              "internalType": "bool",
              "name": "completed",
              "type": "bool"
            },
            {
              "internalType": "bool",
              "name": "rejected",
              "type": "bool"
            },
            {
              "internalType": "bool",
              "name": "authorizedPartnerValidated",
              "type": "bool"
            },
            {
              "internalType": "address",
              "name": "authorizedPartner",
              "type": "address"
            }
          ],
          "internalType": "struct VerifierNFT.VerificationRequest",
          "name": "",
          "type": "tuple"
        }
      ],
      "stateMutability": "view",
      "type": "function"
    },
    {
      "inputs": [
        {
          "internalType": "address",
          "name": "owner",
          "type": "address"
        },
        {
          "internalType": "address",
          "name": "operator",
          "type": "address"
        }
      ],
      "name": "isApprovedForAll",
      "outputs": [
        {
          "internalType": "bool",
          "name": "",
          "type": "bool"
        }
      ],
      "stateMutability": "view",
      "type": "function"
    },
    {
      "inputs": [],
      "name": "name",
      "outputs": [
        {
          "internalType": "string",
          "name": "",
          "type": "string"
        }
      ],
      "stateMutability": "view",
      "type": "function"
    },
    {
      "inputs": [],
      "name": "owner",
      "outputs": [
        {
          "internalType": "address",
          "name": "",
          "type": "address"
        }
      ],
      "stateMutability": "view",
      "type": "function"
    },
    {
      "inputs": [
        {
          "internalType": "uint256",
          "name": "tokenId",
          "type": "uint256"
        }
      ],
      "name": "ownerOf",
      "outputs": [
        {
          "internalType": "address",
          "name": "",
          "type": "address"
        }
      ],
      "stateMutability": "view",
      "type": "function"
    },
    {
      "inputs": [
        {
          "internalType": "bytes",
          "name": "performData",
          "type": "bytes"
        }
      ],
      "name": "performUpkeep",
      "outputs": [],
      "stateMutability": "nonpayable",
      "type": "function"
    },
    {
      "inputs": [
        {
          "internalType": "uint256",
          "name": "requestId",
          "type": "uint256"
        }
      ],
      "name": "rejectVerification",
      "outputs": [],
      "stateMutability": "nonpayable",
      "type": "function"
    },
    {
      "inputs": [
        {
          "internalType": "address",
          "name": "partner",
          "type": "address"
        }
      ],
      "name": "removeAuthorizedPartner",
      "outputs": [],
      "stateMutability": "nonpayable",
      "type": "function"
    },
    {
      "inputs": [],
      "name": "renounceOwnership",
      "outputs": [],
      "stateMutability": "nonpayable",
      "type": "function"
    },
    {
      "inputs": [
        {
          "internalType": "string",
          "name": "tokenURI",
          "type": "string"
        },
        {
          "internalType": "address",
          "name": "authorizedPartner",
          "type": "address"
        }
      ],
      "name": "requestVerification",
      "outputs": [],
      "stateMutability": "nonpayable",
      "type": "function"
    },
    {
      "inputs": [
        {
          "internalType": "address",
          "name": "from",
          "type": "address"
        },
        {
          "internalType": "address",
          "name": "to",
          "type": "address"
        },
        {
          "internalType": "uint256",
          "name": "tokenId",
          "type": "uint256"
        }
      ],
      "name": "safeTransferFrom",
      "outputs": [],
      "stateMutability": "nonpayable",
      "type": "function"
    },
    {
      "inputs": [
        {
          "internalType": "address",
          "name": "from",
          "type": "address"
        },
        {
          "internalType": "address",
          "name": "to",
          "type": "address"
        },
        {
          "internalType": "uint256",
          "name": "tokenId",
          "type": "uint256"
        },
        {
          "internalType": "bytes",
          "name": "data",
          "type": "bytes"
        }
      ],
      "name": "safeTransferFrom",
      "outputs": [],
      "stateMutability": "nonpayable",
      "type": "function"
    },
    {
      "inputs": [
        {
          "internalType": "address",
          "name": "operator",
          "type": "address"
        },
        {
          "internalType": "bool",
          "name": "approved",
          "type": "bool"
        }
      ],
      "name": "setApprovalForAll",
      "outputs": [],
      "stateMutability": "nonpayable",
      "type": "function"
    },
    {
      "inputs": [
        {
          "internalType": "bytes4",
          "name": "interfaceId",
          "type": "bytes4"
        }
      ],
      "name": "supportsInterface",
      "outputs": [
        {
          "internalType": "bool",
          "name": "",
          "type": "bool"
        }
      ],
      "stateMutability": "view",
      "type": "function"
    },
    {
      "inputs": [],
      "name": "symbol",
      "outputs": [
        {
          "internalType": "string",
          "name": "",
          "type": "string"
        }
      ],
      "stateMutability": "view",
      "type": "function"
    },
    {
      "inputs": [
        {
          "internalType": "uint256",
          "name": "tokenId",
          "type": "uint256"
        }
      ],
      "name": "tokenURI",
      "outputs": [
        {
          "internalType": "string",
          "name": "",
          "type": "string"
        }
      ],
      "stateMutability": "view",
      "type": "function"
    },
    {
      "inputs": [
        {
          "internalType": "address",
          "name": "from",
          "type": "address"
        },
        {
          "internalType": "address",
          "name": "to",
          "type": "address"
        },
        {
          "internalType": "uint256",
          "name": "tokenId",
          "type": "uint256"
        }
      ],
      "name": "transferFrom",
      "outputs": [],
      "stateMutability": "nonpayable",
      "type": "function"
    },
    {
      "inputs": [
        {
          "internalType": "address",
          "name": "newOwner",
          "type": "address"
        }
      ],
      "name": "transferOwnership",
      "outputs": [],
      "stateMutability": "nonpayable",
      "type": "function"
    },
    {
      "inputs": [
        {
          "internalType": "uint256",
          "name": "requestId",
          "type": "uint256"
        }
      ],
      "name": "validateByPartner",
      "outputs": [],
      "stateMutability": "nonpayable",
      "type": "function"
    }
  ],
  "transactionHash": "0xffca1ab5cc11c5c53938a62986f5bce16762e88a0a6d4a688075fae0ffd79235",
  "args": [
    "0x5FbDB2315678afecb367f032d93F642f64180aa3",
    "1"
  ],
  "numDeployments": 1,
  "solcInputHash": "27bddca20eeddb89d9ff11e1cc2473ac",
  "bytecode": "0x60c06040523480156200001157600080fd5b50604051620043bf380380620043bf833981016040819052620000349162000135565b6040518060400160405280600b81526020016a15995c9a599a595c93919560aa1b815250604051806040016040528060048152602001631593919560e21b815250816000908162000086919062000216565b50600162000095828262000216565b505050620000b2620000ac620000df60201b60201c565b620000e3565b6001600160a01b038216608052620000d381670de0b6b3a7640000620002e2565b60a052506200030e9050565b3390565b600780546001600160a01b038381166001600160a01b0319831681179093556040519116919082907f8be0079c531659141344cd1fd0a4f28419497f9722a3daafe3b4186f6b6457e090600090a35050565b600080604083850312156200014957600080fd5b82516001600160a01b03811681146200016157600080fd5b6020939093015192949293505050565b634e487b7160e01b600052604160045260246000fd5b600181811c908216806200019c57607f821691505b602082108103620001bd57634e487b7160e01b600052602260045260246000fd5b50919050565b601f8211156200021157600081815260208120601f850160051c81016020861015620001ec5750805b601f850160051c820191505b818110156200020d57828155600101620001f8565b5050505b505050565b81516001600160401b0381111562000232576200023262000171565b6200024a8162000243845462000187565b84620001c3565b602080601f831160018114620002825760008415620002695750858301515b600019600386901b1c1916600185901b1785556200020d565b600085815260208120601f198616915b82811015620002b35788860151825594840194600190910190840162000292565b5085821015620002d25787850151600019600388901b60f8161c191681555b5050505050600190811b01905550565b80820281158282048414176200030857634e487b7160e01b600052601160045260246000fd5b92915050565b60805160a051613ff1620003ce60003960008181610415015281816108020152818161096201528181611442015281816115b401528181611720015281816118a001528181612733015281816128b301528181612a4201528181612bc20152612c8c0152600081816102df015281816107d401528181610988015281816114120152818161157c015281816116f001528181611840015281816126fb0152818161285301528181612a1201528181612b620152612be80152613ff16000f3fe608060405234801561001057600080fd5b50600436106101cf5760003560e01c8063715018a611610104578063a99752c4116100a2578063c87b56dd11610071578063c87b56dd1461044c578063e985e9c51461045f578063f2fde38b146104a8578063fa6ca5bc146104bb57600080fd5b8063a99752c4146103ed578063b88d4fde14610400578063b9a7eb5114610413578063c75305bc1461043957600080fd5b80638da5cb5b116100de5780638da5cb5b146103ac57806395d89b41146103ca578063a22cb465146103d2578063a2785f0b146103e557600080fd5b8063715018a6146103585780637bf658401461036057806380b6a0b81461039957600080fd5b806342842e0e116101715780635f51ecc31161014b5780635f51ecc3146102dd5780636352211e146103035780636e04ff0d1461031657806370a082311461033757600080fd5b806342842e0e146102a45780634585e33b146102b75780635ee3feb8146102ca57600080fd5b8063095ea7b3116101ad578063095ea7b3146102495780631c74b85a1461025e57806322ccb4741461027157806323b872dd1461029157600080fd5b806301ffc9a7146101d457806306fdde03146101fc578063081812fc14610211575b600080fd5b6101e76101e23660046136dc565b6104c4565b60405190151581526020015b60405180910390f35b610204610520565b6040516101f39190613767565b61022461021f36600461377a565b6105b2565b60405173ffffffffffffffffffffffffffffffffffffffff90911681526020016101f3565b61025c6102573660046137bc565b6105e6565b005b61025c61026c3660046138da565b6107a2565b61028461027f36600461377a565b610c5f565b6040516101f3919061393c565b61025c61029f3660046139d0565b610dc4565b61025c6102b23660046139d0565b610e65565b61025c6102c5366004613a0c565b610e80565b61025c6102d836600461377a565b610ed9565b7f0000000000000000000000000000000000000000000000000000000000000000610224565b61022461031136600461377a565b610fe0565b610329610324366004613a0c565b61106c565b6040516101f3929190613a7e565b61034a610345366004613a99565b6111c5565b6040519081526020016101f3565b61025c611293565b6101e761036e366004613a99565b73ffffffffffffffffffffffffffffffffffffffff166000908152600a602052604090205460ff1690565b61025c6103a736600461377a565b6112a7565b60075473ffffffffffffffffffffffffffffffffffffffff16610224565b610204611a10565b61025c6103e0366004613ac2565b611a1f565b600b5461034a565b61025c6103fb366004613a99565b611a2e565b61025c61040e366004613af9565b611ae5565b7f000000000000000000000000000000000000000000000000000000000000000061034a565b61025c610447366004613a99565b611b8d565b61020461045a36600461377a565b611c40565b6101e761046d366004613b75565b73ffffffffffffffffffffffffffffffffffffffff918216600090815260056020908152604080832093909416825291909152205460ff1690565b61025c6104b6366004613a99565b611d50565b6206978061034a565b60007fffffffff0000000000000000000000000000000000000000000000000000000082167f4906490600000000000000000000000000000000000000000000000000000000148061051a575061051a82611e07565b92915050565b60606000805461052f90613b9f565b80601f016020809104026020016040519081016040528092919081815260200182805461055b90613b9f565b80156105a85780601f1061057d576101008083540402835291602001916105a8565b820191906000526020600020905b81548152906001019060200180831161058b57829003601f168201915b5050505050905090565b60006105bd82611eea565b5060009081526004602052604090205473ffffffffffffffffffffffffffffffffffffffff1690565b60006105f182610fe0565b90508073ffffffffffffffffffffffffffffffffffffffff168373ffffffffffffffffffffffffffffffffffffffff16036106b3576040517f08c379a000000000000000000000000000000000000000000000000000000000815260206004820152602160248201527f4552433732313a20617070726f76616c20746f2063757272656e74206f776e6560448201527f720000000000000000000000000000000000000000000000000000000000000060648201526084015b60405180910390fd5b3373ffffffffffffffffffffffffffffffffffffffff82161480610707575073ffffffffffffffffffffffffffffffffffffffff8116600090815260056020908152604080832033845290915290205460ff165b610793576040517f08c379a000000000000000000000000000000000000000000000000000000000815260206004820152603d60248201527f4552433732313a20617070726f76652063616c6c6572206973206e6f7420746f60448201527f6b656e206f776e6572206f7220617070726f76656420666f7220616c6c00000060648201526084016106aa565b61079d8383611f75565b505050565b73ffffffffffffffffffffffffffffffffffffffff811661092e5773ffffffffffffffffffffffffffffffffffffffff7f0000000000000000000000000000000000000000000000000000000000000000166323b872dd333061082660027f0000000000000000000000000000000000000000000000000000000000000000613c21565b6040517fffffffff0000000000000000000000000000000000000000000000000000000060e086901b16815273ffffffffffffffffffffffffffffffffffffffff938416600482015292909116602483015260448201526064016020604051808303816000875af115801561089f573d6000803e3d6000fd5b505050506040513d601f19601f820116820180604052508101906108c39190613c5c565b610929576040517f08c379a000000000000000000000000000000000000000000000000000000000815260206004820152600e60248201527f5061796d656e74206661696c656400000000000000000000000000000000000060448201526064016106aa565b610a70565b6040517f23b872dd0000000000000000000000000000000000000000000000000000000081523360048201523060248201527f000000000000000000000000000000000000000000000000000000000000000060448201527f000000000000000000000000000000000000000000000000000000000000000073ffffffffffffffffffffffffffffffffffffffff16906323b872dd906064016020604051808303816000875af11580156109e6573d6000803e3d6000fd5b505050506040513d601f19601f82011682018060405250810190610a0a9190613c5c565b610a70576040517f08c379a000000000000000000000000000000000000000000000000000000000815260206004820152600e60248201527f5061796d656e74206661696c656400000000000000000000000000000000000060448201526064016106aa565b600b8054906000610a8083613c79565b90915550506040805160e081018252338152602080820185815242838501526000606084018190526080840181905260a0840181905273ffffffffffffffffffffffffffffffffffffffff86811660c0860152600b548252600990935293909320825181547fffffffffffffffffffffffff000000000000000000000000000000000000000016921691909117815591519091906001820190610b239082613cff565b506040828101516002830155606083015160039092018054608085015160a086015160c09096015173ffffffffffffffffffffffffffffffffffffffff166301000000027fffffffffffffffffff0000000000000000000000000000000000000000ffffff9615156201000002969096167fffffffffffffffffff000000000000000000000000000000000000000000ffff911515610100027fffffffffffffffffffffffffffffffffffffffffffffffffffffffffffff00ff961515969096167fffffffffffffffffffffffffffffffffffffffffffffffffffffffffffff000090931692909217949094179390931692909217929092179055600b54905133917fa3cac7c72dca9bd0861f2c164c8f3b00e8a9db7c0539ea939c9db9bbda01afc691610c5391815260200190565b60405180910390a25050565b6040805160e08101825260008082526060602083018190529282018190529181018290526080810182905260a0810182905260c0810191909152600082815260096020908152604091829020825160e08101909352805473ffffffffffffffffffffffffffffffffffffffff1683526001810180549192840191610ce290613b9f565b80601f0160208091040260200160405190810160405280929190818152602001828054610d0e90613b9f565b8015610d5b5780601f10610d3057610100808354040283529160200191610d5b565b820191906000526020600020905b815481529060010190602001808311610d3e57829003601f168201915b50505091835250506002820154602082015260039091015460ff80821615156040840152610100820481161515606084015262010000820416151560808301526301000000900473ffffffffffffffffffffffffffffffffffffffff1660a09091015292915050565b610dce3382612015565b610e5a576040517f08c379a000000000000000000000000000000000000000000000000000000000815260206004820152602d60248201527f4552433732313a2063616c6c6572206973206e6f7420746f6b656e206f776e6560448201527f72206f7220617070726f7665640000000000000000000000000000000000000060648201526084016106aa565b61079d8383836120d4565b61079d83838360405180602001604052806000815250611ae5565b600080610e8f83850185613e19565b9150915060005b81811015610ed257610ec0838281518110610eb357610eb3613ec5565b60200260200101516123cf565b80610eca81613c79565b915050610e96565b5050505050565b336000908152600a602052604090205460ff16610f22576040517f2e6eb79500000000000000000000000000000000000000000000000000000000815260040160405180910390fd5b6000818152600960205260409020600381015460ff1615610f6f576040517f4400581b00000000000000000000000000000000000000000000000000000000815260040160405180910390fd5b6003810180546301000000339081027fffffffffffffffffff000000000000000000000000000000000000000000ffff9092169190911762010000179091556040517f5ecc61191149a691296b71707b6979e0359d5a191e3dd7ee3c7d828375d7959990610c539085815260200190565b60008181526002602052604081205473ffffffffffffffffffffffffffffffffffffffff168061051a576040517f08c379a000000000000000000000000000000000000000000000000000000000815260206004820152601860248201527f4552433732313a20696e76616c696420746f6b656e204944000000000000000060448201526064016106aa565b60006060600091506000600b5467ffffffffffffffff811115611091576110916137e6565b6040519080825280602002602001820160405280156110ba578160200160208202803683370190505b509050600060015b600b5481116111975760008181526009602052604090206003015460ff161580156111045750600081815260096020526040902060030154610100900460ff16155b8015611150575060008181526009602052604090206002015461112b906206978090613ef4565b42101580611150575060008181526009602052604090206003015462010000900460ff165b15611185578083838151811061116857611168613ec5565b60209081029190910101528161117d81613c79565b925050600194505b8061118f81613c79565b9150506110c2565b5081816040516020016111ab929190613f07565b604051602081830303815290604052925050509250929050565b600073ffffffffffffffffffffffffffffffffffffffff821661126a576040517f08c379a000000000000000000000000000000000000000000000000000000000815260206004820152602960248201527f4552433732313a2061646472657373207a65726f206973206e6f74206120766160448201527f6c6964206f776e6572000000000000000000000000000000000000000000000060648201526084016106aa565b5073ffffffffffffffffffffffffffffffffffffffff1660009081526003602052604090205490565b61129b612cb8565b6112a56000612d39565b565b6000818152600960205260409020600381015460ff16156112f4576040517f4400581b00000000000000000000000000000000000000000000000000000000815260040160405180910390fd5b6003810154610100900460ff1615611338576040517fcfa988d700000000000000000000000000000000000000000000000000000000815260040160405180910390fd5b60075473ffffffffffffffffffffffffffffffffffffffff1633148015906113705750336000908152600a602052604090205460ff16155b156113a7576040517f94630c3b00000000000000000000000000000000000000000000000000000000815260040160405180910390fd5b6003810180547fffffffffffffffffffffffffffffffffffffffffffffffffffffffffffff00ff1661010017908190556301000000900473ffffffffffffffffffffffffffffffffffffffff16156116d757805473ffffffffffffffffffffffffffffffffffffffff7f000000000000000000000000000000000000000000000000000000000000000081169163a9059cbb911661146660027f0000000000000000000000000000000000000000000000000000000000000000613c21565b6040517fffffffff0000000000000000000000000000000000000000000000000000000060e085901b16815273ffffffffffffffffffffffffffffffffffffffff909216600483015260248201526044016020604051808303816000875af11580156114d6573d6000803e3d6000fd5b505050506040513d601f19601f820116820180604052508101906114fa9190613c5c565b611560576040517f08c379a000000000000000000000000000000000000000000000000000000000815260206004820152601360248201527f546f6b656e20726566756e64206661696c65640000000000000000000000000060448201526064016106aa565b600381015473ffffffffffffffffffffffffffffffffffffffff7f000000000000000000000000000000000000000000000000000000000000000081169163a9059cbb916301000000909104166115d860027f0000000000000000000000000000000000000000000000000000000000000000613c21565b6040517fffffffff0000000000000000000000000000000000000000000000000000000060e085901b16815273ffffffffffffffffffffffffffffffffffffffff909216600483015260248201526044016020604051808303816000875af1158015611648573d6000803e3d6000fd5b505050506040513d601f19601f8201168201806040525081019061166c9190613c5c565b6116d2576040517f08c379a000000000000000000000000000000000000000000000000000000000815260206004820152601360248201527f546f6b656e20726566756e64206661696c65640000000000000000000000000060448201526064016106aa565b6119be565b805473ffffffffffffffffffffffffffffffffffffffff7f000000000000000000000000000000000000000000000000000000000000000081169163a9059cbb911661174460027f0000000000000000000000000000000000000000000000000000000000000000613c21565b6040517fffffffff0000000000000000000000000000000000000000000000000000000060e085901b16815273ffffffffffffffffffffffffffffffffffffffff909216600483015260248201526044016020604051808303816000875af11580156117b4573d6000803e3d6000fd5b505050506040513d601f19601f820116820180604052508101906117d89190613c5c565b61183e576040517f08c379a000000000000000000000000000000000000000000000000000000000815260206004820152601360248201527f546f6b656e20726566756e64206661696c65640000000000000000000000000060448201526064016106aa565b7f000000000000000000000000000000000000000000000000000000000000000073ffffffffffffffffffffffffffffffffffffffff1663a9059cbb61189960075473ffffffffffffffffffffffffffffffffffffffff1690565b6118c460027f0000000000000000000000000000000000000000000000000000000000000000613c21565b6040517fffffffff0000000000000000000000000000000000000000000000000000000060e085901b16815273ffffffffffffffffffffffffffffffffffffffff909216600483015260248201526044016020604051808303816000875af1158015611934573d6000803e3d6000fd5b505050506040513d601f19601f820116820180604052508101906119589190613c5c565b6119be576040517f08c379a000000000000000000000000000000000000000000000000000000000815260206004820152601360248201527f546f6b656e20726566756e64206661696c65640000000000000000000000000060448201526064016106aa565b8054604051838152339173ffffffffffffffffffffffffffffffffffffffff16907fc6d3c73ba4c8d1370420fdc60369e39c28f29ff7a601c9e887290299ab667f5e9060200160405180910390a35050565b60606001805461052f90613b9f565b611a2a338383612db0565b5050565b611a36612cb8565b73ffffffffffffffffffffffffffffffffffffffff81166000908152600a602052604090205460ff1615611a96576040517f81ed10fb00000000000000000000000000000000000000000000000000000000815260040160405180910390fd5b73ffffffffffffffffffffffffffffffffffffffff166000908152600a6020526040902080547fffffffffffffffffffffffffffffffffffffffffffffffffffffffffffffff00166001179055565b611aef3383612015565b611b7b576040517f08c379a000000000000000000000000000000000000000000000000000000000815260206004820152602d60248201527f4552433732313a2063616c6c6572206973206e6f7420746f6b656e206f776e6560448201527f72206f7220617070726f7665640000000000000000000000000000000000000060648201526084016106aa565b611b8784848484612edd565b50505050565b611b95612cb8565b73ffffffffffffffffffffffffffffffffffffffff81166000908152600a602052604090205460ff16611bf4576040517fab9b2ff900000000000000000000000000000000000000000000000000000000815260040160405180910390fd5b73ffffffffffffffffffffffffffffffffffffffff166000908152600a6020526040902080547fffffffffffffffffffffffffffffffffffffffffffffffffffffffffffffff00169055565b6060611c4b82611eea565b60008281526006602052604081208054611c6490613b9f565b80601f0160208091040260200160405190810160405280929190818152602001828054611c9090613b9f565b8015611cdd5780601f10611cb257610100808354040283529160200191611cdd565b820191906000526020600020905b815481529060010190602001808311611cc057829003601f168201915b505050505090506000611cfb60408051602081019091526000815290565b90508051600003611d0d575092915050565b815115611d3f578082604051602001611d27929190613f4f565b60405160208183030381529060405292505050919050565b611d4884612f80565b949350505050565b611d58612cb8565b73ffffffffffffffffffffffffffffffffffffffff8116611dfb576040517f08c379a000000000000000000000000000000000000000000000000000000000815260206004820152602660248201527f4f776e61626c653a206e6577206f776e657220697320746865207a65726f206160448201527f646472657373000000000000000000000000000000000000000000000000000060648201526084016106aa565b611e0481612d39565b50565b60007fffffffff0000000000000000000000000000000000000000000000000000000082167f80ac58cd000000000000000000000000000000000000000000000000000000001480611e9a57507fffffffff0000000000000000000000000000000000000000000000000000000082167f5b5e139f00000000000000000000000000000000000000000000000000000000145b8061051a57507f01ffc9a7000000000000000000000000000000000000000000000000000000007fffffffff0000000000000000000000000000000000000000000000000000000083161461051a565b60008181526002602052604090205473ffffffffffffffffffffffffffffffffffffffff16611e04576040517f08c379a000000000000000000000000000000000000000000000000000000000815260206004820152601860248201527f4552433732313a20696e76616c696420746f6b656e204944000000000000000060448201526064016106aa565b600081815260046020526040902080547fffffffffffffffffffffffff00000000000000000000000000000000000000001673ffffffffffffffffffffffffffffffffffffffff84169081179091558190611fcf82610fe0565b73ffffffffffffffffffffffffffffffffffffffff167f8c5be1e5ebec7d5bd14f71427d1e84f3dd0314c0f7b2291e5b200ac8c7c3b92560405160405180910390a45050565b60008061202183610fe0565b90508073ffffffffffffffffffffffffffffffffffffffff168473ffffffffffffffffffffffffffffffffffffffff16148061208f575073ffffffffffffffffffffffffffffffffffffffff80821660009081526005602090815260408083209388168352929052205460ff165b80611d4857508373ffffffffffffffffffffffffffffffffffffffff166120b5846105b2565b73ffffffffffffffffffffffffffffffffffffffff1614949350505050565b8273ffffffffffffffffffffffffffffffffffffffff166120f482610fe0565b73ffffffffffffffffffffffffffffffffffffffff1614612197576040517f08c379a000000000000000000000000000000000000000000000000000000000815260206004820152602560248201527f4552433732313a207472616e736665722066726f6d20696e636f72726563742060448201527f6f776e657200000000000000000000000000000000000000000000000000000060648201526084016106aa565b73ffffffffffffffffffffffffffffffffffffffff8216612239576040517f08c379a0000000000000000000000000000000000000000000000000000000008152602060048201526024808201527f4552433732313a207472616e7366657220746f20746865207a65726f2061646460448201527f726573730000000000000000000000000000000000000000000000000000000060648201526084016106aa565b8273ffffffffffffffffffffffffffffffffffffffff1661225982610fe0565b73ffffffffffffffffffffffffffffffffffffffff16146122fc576040517f08c379a000000000000000000000000000000000000000000000000000000000815260206004820152602560248201527f4552433732313a207472616e736665722066726f6d20696e636f72726563742060448201527f6f776e657200000000000000000000000000000000000000000000000000000060648201526084016106aa565b600081815260046020908152604080832080547fffffffffffffffffffffffff000000000000000000000000000000000000000090811690915573ffffffffffffffffffffffffffffffffffffffff8781168086526003855283862080547fffffffffffffffffffffffffffffffffffffffffffffffffffffffffffffffff01905590871680865283862080546001019055868652600290945282852080549092168417909155905184937fddf252ad1be2c89b69c2b068fc378daa952ba7f163c4a11628f55a4df523b3ef91a4505050565b6000818152600960205260409020600381015460ff161561244c576040517f08c379a000000000000000000000000000000000000000000000000000000000815260206004820152601e60248201527f566572696669636174696f6e20616c726561647920636f6d706c65746564000060448201526064016106aa565b6003810154610100900460ff16156124c0576040517f08c379a000000000000000000000000000000000000000000000000000000000815260206004820152601960248201527f566572696669636174696f6e207761732072656a65637465640000000000000060448201526064016106aa565b6206978081600201546124d39190613ef4565b421015806124eb5750600381015462010000900460ff165b612577576040517f08c379a000000000000000000000000000000000000000000000000000000000815260206004820152603360248201527f54696d65206c696d6974206e6f74207265616368656420616e64206e6f74207660448201527f616c69646174656420627920706172746e65720000000000000000000000000060648201526084016106aa565b612585600880546001019055565b600061259060085490565b82549091506125b59073ffffffffffffffffffffffffffffffffffffffff1682612ff4565b61264b818360010180546125c890613b9f565b80601f01602080910402602001604051908101604052809291908181526020018280546125f490613b9f565b80156126415780601f1061261657610100808354040283529160200191612641565b820191906000526020600020905b81548152906001019060200180831161262457829003601f168201915b5050505050613219565b6003820180547fffffffffffffffffffffffffffffffffffffffffffffffffffffffffffffff001660011790558154604080518581526020810184905273ffffffffffffffffffffffffffffffffffffffff909216917fb7b6b127aee18ec0ebebf7cd999ae75c4cda0673b14b3b0e9aa3668e24ffb667910160405180910390a2600382015462010000900460ff16156129d257600382015473ffffffffffffffffffffffffffffffffffffffff7f000000000000000000000000000000000000000000000000000000000000000081169163a9059cbb9163010000009091041661275760027f0000000000000000000000000000000000000000000000000000000000000000613c21565b6040517fffffffff0000000000000000000000000000000000000000000000000000000060e085901b16815273ffffffffffffffffffffffffffffffffffffffff909216600483015260248201526044016020604051808303816000875af11580156127c7573d6000803e3d6000fd5b505050506040513d601f19601f820116820180604052508101906127eb9190613c5c565b612851576040517f08c379a000000000000000000000000000000000000000000000000000000000815260206004820152600e60248201527f5061796d656e74206661696c656400000000000000000000000000000000000060448201526064016106aa565b7f000000000000000000000000000000000000000000000000000000000000000073ffffffffffffffffffffffffffffffffffffffff1663a9059cbb6128ac60075473ffffffffffffffffffffffffffffffffffffffff1690565b6128d760027f0000000000000000000000000000000000000000000000000000000000000000613c21565b6040517fffffffff0000000000000000000000000000000000000000000000000000000060e085901b16815273ffffffffffffffffffffffffffffffffffffffff909216600483015260248201526044015b6020604051808303816000875af1158015612948573d6000803e3d6000fd5b505050506040513d601f19601f8201168201806040525081019061296c9190613c5c565b61079d576040517f08c379a000000000000000000000000000000000000000000000000000000000815260206004820152600e60248201527f5061796d656e74206661696c656400000000000000000000000000000000000060448201526064016106aa565b60038201546301000000900473ffffffffffffffffffffffffffffffffffffffff1615612be657815473ffffffffffffffffffffffffffffffffffffffff7f000000000000000000000000000000000000000000000000000000000000000081169163a9059cbb9116612a6660047f0000000000000000000000000000000000000000000000000000000000000000613c21565b6040517fffffffff0000000000000000000000000000000000000000000000000000000060e085901b16815273ffffffffffffffffffffffffffffffffffffffff909216600483015260248201526044016020604051808303816000875af1158015612ad6573d6000803e3d6000fd5b505050506040513d601f19601f82011682018060405250810190612afa9190613c5c565b612b60576040517f08c379a000000000000000000000000000000000000000000000000000000000815260206004820152600e60248201527f5061796d656e74206661696c656400000000000000000000000000000000000060448201526064016106aa565b7f000000000000000000000000000000000000000000000000000000000000000073ffffffffffffffffffffffffffffffffffffffff1663a9059cbb612bbb60075473ffffffffffffffffffffffffffffffffffffffff1690565b6128d760047f0000000000000000000000000000000000000000000000000000000000000000613c21565b7f000000000000000000000000000000000000000000000000000000000000000073ffffffffffffffffffffffffffffffffffffffff1663a9059cbb612c4160075473ffffffffffffffffffffffffffffffffffffffff1690565b6040517fffffffff0000000000000000000000000000000000000000000000000000000060e084901b16815273ffffffffffffffffffffffffffffffffffffffff90911660048201527f00000000000000000000000000000000000000000000000000000000000000006024820152604401612929565b60075473ffffffffffffffffffffffffffffffffffffffff1633146112a5576040517f08c379a000000000000000000000000000000000000000000000000000000000815260206004820181905260248201527f4f776e61626c653a2063616c6c6572206973206e6f7420746865206f776e657260448201526064016106aa565b6007805473ffffffffffffffffffffffffffffffffffffffff8381167fffffffffffffffffffffffff0000000000000000000000000000000000000000831681179093556040519116919082907f8be0079c531659141344cd1fd0a4f28419497f9722a3daafe3b4186f6b6457e090600090a35050565b8173ffffffffffffffffffffffffffffffffffffffff168373ffffffffffffffffffffffffffffffffffffffff1603612e45576040517f08c379a000000000000000000000000000000000000000000000000000000000815260206004820152601960248201527f4552433732313a20617070726f766520746f2063616c6c65720000000000000060448201526064016106aa565b73ffffffffffffffffffffffffffffffffffffffff83811660008181526005602090815260408083209487168084529482529182902080547fffffffffffffffffffffffffffffffffffffffffffffffffffffffffffffff001686151590811790915591519182527f17307eab39ab6107e8899845ad3d59bd9653f200f220920489ca2b5937696c31910160405180910390a3505050565b612ee88484846120d4565b612ef48484848461331a565b611b87576040517f08c379a000000000000000000000000000000000000000000000000000000000815260206004820152603260248201527f4552433732313a207472616e7366657220746f206e6f6e20455243373231526560448201527f63656976657220696d706c656d656e746572000000000000000000000000000060648201526084016106aa565b6060612f8b82611eea565b6000612fa260408051602081019091526000815290565b90506000815111612fc25760405180602001604052806000815250612fed565b80612fcc8461350d565b604051602001612fdd929190613f4f565b6040516020818303038152906040525b9392505050565b73ffffffffffffffffffffffffffffffffffffffff8216613071576040517f08c379a000000000000000000000000000000000000000000000000000000000815260206004820181905260248201527f4552433732313a206d696e7420746f20746865207a65726f206164647265737360448201526064016106aa565b60008181526002602052604090205473ffffffffffffffffffffffffffffffffffffffff16156130fd576040517f08c379a000000000000000000000000000000000000000000000000000000000815260206004820152601c60248201527f4552433732313a20746f6b656e20616c7265616479206d696e7465640000000060448201526064016106aa565b60008181526002602052604090205473ffffffffffffffffffffffffffffffffffffffff1615613189576040517f08c379a000000000000000000000000000000000000000000000000000000000815260206004820152601c60248201527f4552433732313a20746f6b656e20616c7265616479206d696e7465640000000060448201526064016106aa565b73ffffffffffffffffffffffffffffffffffffffff8216600081815260036020908152604080832080546001019055848352600290915280822080547fffffffffffffffffffffffff0000000000000000000000000000000000000000168417905551839291907fddf252ad1be2c89b69c2b068fc378daa952ba7f163c4a11628f55a4df523b3ef908290a45050565b60008281526002602052604090205473ffffffffffffffffffffffffffffffffffffffff166132ca576040517f08c379a000000000000000000000000000000000000000000000000000000000815260206004820152602e60248201527f45524337323155524953746f726167653a2055524920736574206f66206e6f6e60448201527f6578697374656e7420746f6b656e00000000000000000000000000000000000060648201526084016106aa565b60008281526006602052604090206132e28282613cff565b506040518281527ff8e1a15aba9398e019f0b49df1a4fde98ee17ae345cb5f6b5e2c27f5033e8ce79060200160405180910390a15050565b600073ffffffffffffffffffffffffffffffffffffffff84163b15613502576040517f150b7a0200000000000000000000000000000000000000000000000000000000815273ffffffffffffffffffffffffffffffffffffffff85169063150b7a0290613391903390899088908890600401613f7e565b6020604051808303816000875af19250505080156133ea575060408051601f3d9081017fffffffffffffffffffffffffffffffffffffffffffffffffffffffffffffffe01682019092526133e791810190613fc7565b60015b6134b7573d808015613418576040519150601f19603f3d011682016040523d82523d6000602084013e61341d565b606091505b5080516000036134af576040517f08c379a000000000000000000000000000000000000000000000000000000000815260206004820152603260248201527f4552433732313a207472616e7366657220746f206e6f6e20455243373231526560448201527f63656976657220696d706c656d656e746572000000000000000000000000000060648201526084016106aa565b805181602001fd5b7fffffffff00000000000000000000000000000000000000000000000000000000167f150b7a0200000000000000000000000000000000000000000000000000000000149050611d48565b506001949350505050565b6060600061351a836135cc565b600101905060008167ffffffffffffffff81111561353a5761353a6137e6565b6040519080825280601f01601f191660200182016040528015613564576020820181803683370190505b5090508181016020015b7fffffffffffffffffffffffffffffffffffffffffffffffffffffffffffffffff017f3031323334353637383961626364656600000000000000000000000000000000600a86061a8153600a850494508461356e575b509392505050565b6000807a184f03e93ff9f4daa797ed6e38ed64bf6a1f0100000000000000008310613615577a184f03e93ff9f4daa797ed6e38ed64bf6a1f010000000000000000830492506040015b6d04ee2d6d415b85acef81000000008310613641576d04ee2d6d415b85acef8100000000830492506020015b662386f26fc10000831061365f57662386f26fc10000830492506010015b6305f5e1008310613677576305f5e100830492506008015b612710831061368b57612710830492506004015b6064831061369d576064830492506002015b600a831061051a5760010192915050565b7fffffffff0000000000000000000000000000000000000000000000000000000081168114611e0457600080fd5b6000602082840312156136ee57600080fd5b8135612fed816136ae565b60005b838110156137145781810151838201526020016136fc565b50506000910152565b600081518084526137358160208601602086016136f9565b601f017fffffffffffffffffffffffffffffffffffffffffffffffffffffffffffffffe0169290920160200192915050565b602081526000612fed602083018461371d565b60006020828403121561378c57600080fd5b5035919050565b803573ffffffffffffffffffffffffffffffffffffffff811681146137b757600080fd5b919050565b600080604083850312156137cf57600080fd5b6137d883613793565b946020939093013593505050565b7f4e487b7100000000000000000000000000000000000000000000000000000000600052604160045260246000fd5b604051601f82017fffffffffffffffffffffffffffffffffffffffffffffffffffffffffffffffe016810167ffffffffffffffff8111828210171561385c5761385c6137e6565b604052919050565b600067ffffffffffffffff83111561387e5761387e6137e6565b6138af60207fffffffffffffffffffffffffffffffffffffffffffffffffffffffffffffffe0601f86011601613815565b90508281528383830111156138c357600080fd5b828260208301376000602084830101529392505050565b600080604083850312156138ed57600080fd5b823567ffffffffffffffff81111561390457600080fd5b8301601f8101851361391557600080fd5b61392485823560208401613864565b92505061393360208401613793565b90509250929050565b6020815273ffffffffffffffffffffffffffffffffffffffff82511660208201526000602083015160e0604084015261397961010084018261371d565b9050604084015160608401526060840151151560808401526080840151151560a084015260a0840151151560c084015260c08401516135c460e085018273ffffffffffffffffffffffffffffffffffffffff169052565b6000806000606084860312156139e557600080fd5b6139ee84613793565b92506139fc60208501613793565b9150604084013590509250925092565b60008060208385031215613a1f57600080fd5b823567ffffffffffffffff80821115613a3757600080fd5b818501915085601f830112613a4b57600080fd5b813581811115613a5a57600080fd5b866020828501011115613a6c57600080fd5b60209290920196919550909350505050565b8215158152604060208201526000611d48604083018461371d565b600060208284031215613aab57600080fd5b612fed82613793565b8015158114611e0457600080fd5b60008060408385031215613ad557600080fd5b613ade83613793565b91506020830135613aee81613ab4565b809150509250929050565b60008060008060808587031215613b0f57600080fd5b613b1885613793565b9350613b2660208601613793565b925060408501359150606085013567ffffffffffffffff811115613b4957600080fd5b8501601f81018713613b5a57600080fd5b613b6987823560208401613864565b91505092959194509250565b60008060408385031215613b8857600080fd5b613b9183613793565b915061393360208401613793565b600181811c90821680613bb357607f821691505b602082108103613bec577f4e487b7100000000000000000000000000000000000000000000000000000000600052602260045260246000fd5b50919050565b7f4e487b7100000000000000000000000000000000000000000000000000000000600052601160045260246000fd5b600082613c57577f4e487b7100000000000000000000000000000000000000000000000000000000600052601260045260246000fd5b500490565b600060208284031215613c6e57600080fd5b8151612fed81613ab4565b60007fffffffffffffffffffffffffffffffffffffffffffffffffffffffffffffffff8203613caa57613caa613bf2565b5060010190565b601f82111561079d57600081815260208120601f850160051c81016020861015613cd85750805b601f850160051c820191505b81811015613cf757828155600101613ce4565b505050505050565b815167ffffffffffffffff811115613d1957613d196137e6565b613d2d81613d278454613b9f565b84613cb1565b602080601f831160018114613d805760008415613d4a5750858301515b7fffffffffffffffffffffffffffffffffffffffffffffffffffffffffffffffff600386901b1c1916600185901b178555613cf7565b6000858152602081207fffffffffffffffffffffffffffffffffffffffffffffffffffffffffffffffe08616915b82811015613dcd57888601518255948401946001909101908401613dae565b5085821015613e0957878501517fffffffffffffffffffffffffffffffffffffffffffffffffffffffffffffffff600388901b60f8161c191681555b5050505050600190811b01905550565b60008060408385031215613e2c57600080fd5b823567ffffffffffffffff80821115613e4457600080fd5b818501915085601f830112613e5857600080fd5b8135602082821115613e6c57613e6c6137e6565b8160051b9250613e7d818401613815565b8281529284018101928181019089851115613e9757600080fd5b948201945b84861015613eb557853582529482019490820190613e9c565b9997909101359750505050505050565b7f4e487b7100000000000000000000000000000000000000000000000000000000600052603260045260246000fd5b8082018082111561051a5761051a613bf2565b604080825283519082018190526000906020906060840190828701845b82811015613f4057815184529284019290840190600101613f24565b50505092019290925292915050565b60008351613f618184602088016136f9565b835190830190613f758183602088016136f9565b01949350505050565b600073ffffffffffffffffffffffffffffffffffffffff808716835280861660208401525083604083015260806060830152613fbd608083018461371d565b9695505050505050565b600060208284031215613fd957600080fd5b8151612fed816136ae56fea164736f6c6343000813000a",
  "devdoc": {
    "author": "Aldo Munoz",
    "details": "The contract uses the Chainlink Automation library to perform upkeeps",
    "events": {
      "Approval(address,address,uint256)": {
        "details": "Emitted when `owner` enables `approved` to manage the `tokenId` token."
      },
      "ApprovalForAll(address,address,bool)": {
        "details": "Emitted when `owner` enables or disables (`approved`) `operator` to manage all of its assets."
      },
      "BatchMetadataUpdate(uint256,uint256)": {
        "details": "This event emits when the metadata of a range of tokens is changed. So that the third-party platforms such as NFT market could timely update the images and related attributes of the NFTs."
      },
      "MetadataUpdate(uint256)": {
        "details": "This event emits when the metadata of a token is changed. So that the third-party platforms such as NFT market could timely update the images and related attributes of the NFT."
      },
      "Transfer(address,address,uint256)": {
        "details": "Emitted when `tokenId` token is transferred from `from` to `to`."
      }
    },
    "kind": "dev",
    "methods": {
      "approve(address,uint256)": {
        "details": "See {IERC721-approve}."
      },
      "balanceOf(address)": {
        "details": "See {IERC721-balanceOf}."
      },
      "getApproved(uint256)": {
        "details": "See {IERC721-getApproved}."
      },
      "isApprovedForAll(address,address)": {
        "details": "See {IERC721-isApprovedForAll}."
      },
      "name()": {
        "details": "See {IERC721Metadata-name}."
      },
      "owner()": {
        "details": "Returns the address of the current owner."
      },
      "ownerOf(uint256)": {
        "details": "See {IERC721-ownerOf}."
      },
      "performUpkeep(bytes)": {
        "details": "The input to this method should not be trusted, and the caller of the method should not even be restricted to any single registry. Anyone should be able call it, and the input should be validated, there is no guarantee that the data passed in is the performData returned from checkUpkeep. This could happen due to malicious keepers, racing keepers, or simply a state change while the performUpkeep transaction is waiting for confirmation. Always validate the data passed in.",
        "params": {
          "performData": "is the data which was passed back from the checkData simulation. If it is encoded, it can easily be decoded into other types by calling `abi.decode`. This data should not be trusted, and should be validated against the contract's current state."
        }
      },
      "renounceOwnership()": {
        "details": "Leaves the contract without owner. It will not be possible to call `onlyOwner` functions. Can only be called by the current owner. NOTE: Renouncing ownership will leave the contract without an owner, thereby disabling any functionality that is only available to the owner."
      },
      "safeTransferFrom(address,address,uint256)": {
        "details": "See {IERC721-safeTransferFrom}."
      },
      "safeTransferFrom(address,address,uint256,bytes)": {
        "details": "See {IERC721-safeTransferFrom}."
      },
      "setApprovalForAll(address,bool)": {
        "details": "See {IERC721-setApprovalForAll}."
      },
      "supportsInterface(bytes4)": {
        "details": "See {IERC165-supportsInterface}"
      },
      "symbol()": {
        "details": "See {IERC721Metadata-symbol}."
      },
      "tokenURI(uint256)": {
        "details": "See {IERC721Metadata-tokenURI}."
      },
      "transferFrom(address,address,uint256)": {
        "details": "See {IERC721-transferFrom}."
      },
      "transferOwnership(address)": {
        "details": "Transfers ownership of the contract to a new account (`newOwner`). Can only be called by the current owner."
      }
    },
    "title": "The VerifierNFT contract",
    "version": 1
  },
  "userdoc": {
    "kind": "user",
    "methods": {
      "performUpkeep(bytes)": {
        "notice": "method that is actually executed by the keepers, via the registry. The data returned by the checkUpkeep simulation will be passed into this method to actually be executed."
      }
    },
    "notice": "ERC721 token for VerifierNFT",
    "version": 1
  },
  "storageLayout": {
    "storage": [
      {
        "astId": 924,
        "contract": "contracts/VerifierNFT.sol:VerifierNFT",
        "label": "_name",
        "offset": 0,
        "slot": "0",
        "type": "t_string_storage"
      },
      {
        "astId": 926,
        "contract": "contracts/VerifierNFT.sol:VerifierNFT",
        "label": "_symbol",
        "offset": 0,
        "slot": "1",
        "type": "t_string_storage"
      },
      {
        "astId": 930,
        "contract": "contracts/VerifierNFT.sol:VerifierNFT",
        "label": "_owners",
        "offset": 0,
        "slot": "2",
        "type": "t_mapping(t_uint256,t_address)"
      },
      {
        "astId": 934,
        "contract": "contracts/VerifierNFT.sol:VerifierNFT",
        "label": "_balances",
        "offset": 0,
        "slot": "3",
        "type": "t_mapping(t_address,t_uint256)"
      },
      {
        "astId": 938,
        "contract": "contracts/VerifierNFT.sol:VerifierNFT",
        "label": "_tokenApprovals",
        "offset": 0,
        "slot": "4",
        "type": "t_mapping(t_uint256,t_address)"
      },
      {
        "astId": 944,
        "contract": "contracts/VerifierNFT.sol:VerifierNFT",
        "label": "_operatorApprovals",
        "offset": 0,
        "slot": "5",
        "type": "t_mapping(t_address,t_mapping(t_address,t_bool))"
      },
      {
        "astId": 1975,
        "contract": "contracts/VerifierNFT.sol:VerifierNFT",
        "label": "_tokenURIs",
        "offset": 0,
        "slot": "6",
        "type": "t_mapping(t_uint256,t_string_storage)"
      },
      {
        "astId": 75,
        "contract": "contracts/VerifierNFT.sol:VerifierNFT",
        "label": "_owner",
        "offset": 0,
        "slot": "7",
        "type": "t_address"
      },
      {
        "astId": 4012,
        "contract": "contracts/VerifierNFT.sol:VerifierNFT",
        "label": "_tokenIds",
        "offset": 0,
        "slot": "8",
        "type": "t_struct(Counter)2500_storage"
      },
      {
        "astId": 4040,
        "contract": "contracts/VerifierNFT.sol:VerifierNFT",
        "label": "s_verificationRequests",
        "offset": 0,
        "slot": "9",
        "type": "t_mapping(t_uint256,t_struct(VerificationRequest)4027_storage)"
      },
      {
        "astId": 4044,
        "contract": "contracts/VerifierNFT.sol:VerifierNFT",
        "label": "s_authorizedPartners",
        "offset": 0,
        "slot": "10",
        "type": "t_mapping(t_address,t_bool)"
      },
      {
        "astId": 4046,
        "contract": "contracts/VerifierNFT.sol:VerifierNFT",
        "label": "s_requestCounter",
        "offset": 0,
        "slot": "11",
        "type": "t_uint256"
      }
    ],
    "types": {
      "t_address": {
        "encoding": "inplace",
        "label": "address",
        "numberOfBytes": "20"
      },
      "t_bool": {
        "encoding": "inplace",
        "label": "bool",
        "numberOfBytes": "1"
      },
      "t_mapping(t_address,t_bool)": {
        "encoding": "mapping",
        "key": "t_address",
        "label": "mapping(address => bool)",
        "numberOfBytes": "32",
        "value": "t_bool"
      },
      "t_mapping(t_address,t_mapping(t_address,t_bool))": {
        "encoding": "mapping",
        "key": "t_address",
        "label": "mapping(address => mapping(address => bool))",
        "numberOfBytes": "32",
        "value": "t_mapping(t_address,t_bool)"
      },
      "t_mapping(t_address,t_uint256)": {
        "encoding": "mapping",
        "key": "t_address",
        "label": "mapping(address => uint256)",
        "numberOfBytes": "32",
        "value": "t_uint256"
      },
      "t_mapping(t_uint256,t_address)": {
        "encoding": "mapping",
        "key": "t_uint256",
        "label": "mapping(uint256 => address)",
        "numberOfBytes": "32",
        "value": "t_address"
      },
      "t_mapping(t_uint256,t_string_storage)": {
        "encoding": "mapping",
        "key": "t_uint256",
        "label": "mapping(uint256 => string)",
        "numberOfBytes": "32",
        "value": "t_string_storage"
      },
      "t_mapping(t_uint256,t_struct(VerificationRequest)4027_storage)": {
        "encoding": "mapping",
        "key": "t_uint256",
        "label": "mapping(uint256 => struct VerifierNFT.VerificationRequest)",
        "numberOfBytes": "32",
        "value": "t_struct(VerificationRequest)4027_storage"
      },
      "t_string_storage": {
        "encoding": "bytes",
        "label": "string",
        "numberOfBytes": "32"
      },
      "t_struct(Counter)2500_storage": {
        "encoding": "inplace",
        "label": "struct Counters.Counter",
        "members": [
          {
            "astId": 2499,
            "contract": "contracts/VerifierNFT.sol:VerifierNFT",
            "label": "_value",
            "offset": 0,
            "slot": "0",
            "type": "t_uint256"
          }
        ],
        "numberOfBytes": "32"
      },
      "t_struct(VerificationRequest)4027_storage": {
        "encoding": "inplace",
        "label": "struct VerifierNFT.VerificationRequest",
        "members": [
          {
            "astId": 4014,
            "contract": "contracts/VerifierNFT.sol:VerifierNFT",
            "label": "user",
            "offset": 0,
            "slot": "0",
            "type": "t_address"
          },
          {
            "astId": 4016,
            "contract": "contracts/VerifierNFT.sol:VerifierNFT",
            "label": "tokenURI",
            "offset": 0,
            "slot": "1",
            "type": "t_string_storage"
          },
          {
            "astId": 4018,
            "contract": "contracts/VerifierNFT.sol:VerifierNFT",
            "label": "requestTime",
            "offset": 0,
            "slot": "2",
            "type": "t_uint256"
          },
          {
            "astId": 4020,
            "contract": "contracts/VerifierNFT.sol:VerifierNFT",
            "label": "completed",
            "offset": 0,
            "slot": "3",
            "type": "t_bool"
          },
          {
            "astId": 4022,
            "contract": "contracts/VerifierNFT.sol:VerifierNFT",
            "label": "rejected",
            "offset": 1,
            "slot": "3",
            "type": "t_bool"
          },
          {
            "astId": 4024,
            "contract": "contracts/VerifierNFT.sol:VerifierNFT",
            "label": "authorizedPartnerValidated",
            "offset": 2,
            "slot": "3",
            "type": "t_bool"
          },
          {
            "astId": 4026,
            "contract": "contracts/VerifierNFT.sol:VerifierNFT",
            "label": "authorizedPartner",
            "offset": 3,
            "slot": "3",
            "type": "t_address"
          }
        ],
        "numberOfBytes": "128"
      },
      "t_uint256": {
        "encoding": "inplace",
        "label": "uint256",
        "numberOfBytes": "32"
      }
    }
  }
}